:100000000C944C000C9461000C9461000C94610001
:100010000C9461000C9461000C9461000C946100DC
:100020000C9461000C9461000C9461000C946100CC
:100030000C9461000C9461000C9461000C946100BC
:100040000C9461000C9461000C9461000C946100AC
:100050000C9461000C9461000C9461000C9461009C
:100060000C9461000C9461000C9461000C9461008C
:10007000F400DC00DE00E000E200E400E600E8005E
:10008000EA00DA00DA00DA00DA00DA00DA00DA0090
:10009000EC00EE00F000F20011241FBECFEFD4E020
:1000A000DEBFCDBF11E0A0E0B1E0ECE1F2E002C0C4
:1000B00005900D92A031B107D9F70E94F7000C947A
:1000C0000C010C94000087B5886687BD87B58460F5
:1000D00087BD8FEF82BD0895CF93DF93CDB7DEB795
:1000E00060970FB6F894DEBF0FBECDBF80E1E0E0B1
:1000F000F1E0DE01119601900D928A95E1F740E062
:1001000050E040C081E090E0042E02C0880F991FAB
:100110000A94E2F780958BBB83EC99E00197F1F7A5
:1001200000C0000020E030E028C089B3B9016C5F56
:100130007F4F90E0062E02C0959587950A94E2F7CE
:1001400080FD19C089B390E0062E02C09595879571
:100150000A94E2F780FFF6CF220F331F220F331FDE
:1001600081E090E08C0F9D1F280F391FF901E40FEB
:10017000F51F80810CC02F5F3F4F24303105ACF25A
:100180004F5F5F4F443051050CF4BCCF80E0609668
:100190000FB6F894DEBF0FBECDBFDF91CF910895AB
:1001A00090E0FC01F197E431F10520F4E85CFF4FA9
:1001B0000C94060180E019C082E317C08BE415C0DF
:1001C00084E613C08DE711C086E90FC08FEA0DC029
:1001D00088EC0BC081EE09C08FEF07C086E905C02F
:1001E00080E503C08EE101C089E182BD08958FE002
:1001F0008ABB14BA8FEF86B99FEE97BB81BB0E9472
:1002000063000E946C000E94D000FBCFEE0FFF1F26
:0C0210000590F491E02D0994F894FFCFC4
:10021C003132334134353642373839432A3023446E
:00000001FF
